{
  "contractName": "IntroMoney",
  "abi": [
    {
      "inputs": [
        {
          "internalType": "uint256",
          "name": "_userId",
          "type": "uint256"
        },
        {
          "internalType": "uint32",
          "name": "_conversationId",
          "type": "uint32"
        },
        {
          "internalType": "address",
          "name": "_owner",
          "type": "address"
        },
        {
          "internalType": "uint256",
          "name": "_feePercent",
          "type": "uint256"
        },
        {
          "internalType": "uint256",
          "name": "_minRegisterDeposit",
          "type": "uint256"
        },
        {
          "internalType": "uint256",
          "name": "_unreadConversationExpiryDays",
          "type": "uint256"
        }
      ],
      "stateMutability": "nonpayable",
      "type": "constructor"
    },
    {
      "anonymous": false,
      "inputs": [
        {
          "indexed": true,
          "internalType": "address",
          "name": "_from",
          "type": "address"
        },
        {
          "indexed": false,
          "internalType": "uint256",
          "name": "_messageId",
          "type": "uint256"
        }
      ],
      "name": "CreateMessage",
      "type": "event"
    },
    {
      "anonymous": false,
      "inputs": [
        {
          "indexed": true,
          "internalType": "address",
          "name": "_from",
          "type": "address"
        },
        {
          "indexed": false,
          "internalType": "uint256",
          "name": "_value",
          "type": "uint256"
        }
      ],
      "name": "Deposit",
      "type": "event"
    },
    {
      "anonymous": false,
      "inputs": [
        {
          "indexed": true,
          "internalType": "address",
          "name": "_from",
          "type": "address"
        }
      ],
      "name": "Register",
      "type": "event"
    },
    {
      "anonymous": false,
      "inputs": [
        {
          "indexed": true,
          "internalType": "address",
          "name": "_from",
          "type": "address"
        },
        {
          "indexed": false,
          "internalType": "uint256",
          "name": "_value",
          "type": "uint256"
        }
      ],
      "name": "Withdraw",
      "type": "event"
    },
    {
      "inputs": [
        {
          "internalType": "bytes",
          "name": "_encryptedMessage",
          "type": "bytes"
        },
        {
          "internalType": "uint256",
          "name": "_readReward",
          "type": "uint256"
        },
        {
          "internalType": "uint256",
          "name": "_replyReward",
          "type": "uint256"
        }
      ],
      "name": "createConversation",
      "outputs": [
        {
          "internalType": "bool",
          "name": "",
          "type": "bool"
        }
      ],
      "stateMutability": "nonpayable",
      "type": "function"
    },
    {
      "inputs": [
        {
          "internalType": "uint32",
          "name": "_conversationId",
          "type": "uint32"
        },
        {
          "internalType": "bytes",
          "name": "_encryptedMessage",
          "type": "bytes"
        }
      ],
      "name": "addMessageToConversation",
      "outputs": [
        {
          "internalType": "bool",
          "name": "",
          "type": "bool"
        }
      ],
      "stateMutability": "nonpayable",
      "type": "function"
    },
    {
      "inputs": [
        {
          "internalType": "uint32",
          "name": "_conversationId",
          "type": "uint32"
        },
        {
          "internalType": "address",
          "name": "_participant",
          "type": "address"
        }
      ],
      "name": "checkConversationReadByParticipant",
      "outputs": [
        {
          "internalType": "bool",
          "name": "",
          "type": "bool"
        }
      ],
      "stateMutability": "view",
      "type": "function",
      "constant": true
    },
    {
      "inputs": [
        {
          "internalType": "uint32",
          "name": "_conversationId",
          "type": "uint32"
        },
        {
          "internalType": "address",
          "name": "_participant",
          "type": "address"
        }
      ],
      "name": "readConversationByParticipant",
      "outputs": [
        {
          "internalType": "bool",
          "name": "",
          "type": "bool"
        }
      ],
      "stateMutability": "nonpayable",
      "type": "function"
    },
    {
      "inputs": [
        {
          "internalType": "address",
          "name": "_owner",
          "type": "address"
        }
      ],
      "name": "isOwner",
      "outputs": [
        {
          "internalType": "bool",
          "name": "",
          "type": "bool"
        }
      ],
      "stateMutability": "view",
      "type": "function",
      "constant": true
    },
    {
      "inputs": [],
      "name": "getConversations",
      "outputs": [
        {
          "components": [
            {
              "internalType": "address",
              "name": "owner",
              "type": "address"
            },
            {
              "internalType": "bytes32",
              "name": "ownerUsername",
              "type": "bytes32"
            },
            {
              "internalType": "address",
              "name": "recipient",
              "type": "address"
            },
            {
              "internalType": "bytes32",
              "name": "recipientUsername",
              "type": "bytes32"
            },
            {
              "internalType": "uint256",
              "name": "readReward",
              "type": "uint256"
            },
            {
              "internalType": "uint256",
              "name": "replyReward",
              "type": "uint256"
            },
            {
              "internalType": "bool",
              "name": "exists",
              "type": "bool"
            },
            {
              "components": [
                {
                  "internalType": "uint256",
                  "name": "id",
                  "type": "uint256"
                },
                {
                  "internalType": "address",
                  "name": "owner",
                  "type": "address"
                },
                {
                  "internalType": "bytes",
                  "name": "text",
                  "type": "bytes"
                },
                {
                  "internalType": "bool",
                  "name": "exists",
                  "type": "bool"
                },
                {
                  "internalType": "uint256",
                  "name": "createdAt",
                  "type": "uint256"
                }
              ],
              "internalType": "struct IntroMoney.ConversationMessage[]",
              "name": "messages",
              "type": "tuple[]"
            },
            {
              "internalType": "uint32",
              "name": "id",
              "type": "uint32"
            },
            {
              "internalType": "uint256",
              "name": "messageId",
              "type": "uint256"
            },
            {
              "internalType": "bytes32",
              "name": "conversationHash",
              "type": "bytes32"
            },
            {
              "internalType": "uint256",
              "name": "createdAt",
              "type": "uint256"
            },
            {
              "internalType": "bool",
              "name": "expired",
              "type": "bool"
            }
          ],
          "internalType": "struct IntroMoney.Conversation[]",
          "name": "",
          "type": "tuple[]"
        }
      ],
      "stateMutability": "view",
      "type": "function",
      "constant": true
    },
    {
      "inputs": [
        {
          "internalType": "uint32",
          "name": "_conversationId",
          "type": "uint32"
        }
      ],
      "name": "getConversation",
      "outputs": [
        {
          "components": [
            {
              "internalType": "address",
              "name": "owner",
              "type": "address"
            },
            {
              "internalType": "bytes32",
              "name": "ownerUsername",
              "type": "bytes32"
            },
            {
              "internalType": "address",
              "name": "recipient",
              "type": "address"
            },
            {
              "internalType": "bytes32",
              "name": "recipientUsername",
              "type": "bytes32"
            },
            {
              "internalType": "uint256",
              "name": "readReward",
              "type": "uint256"
            },
            {
              "internalType": "uint256",
              "name": "replyReward",
              "type": "uint256"
            },
            {
              "internalType": "bool",
              "name": "exists",
              "type": "bool"
            },
            {
              "components": [
                {
                  "internalType": "uint256",
                  "name": "id",
                  "type": "uint256"
                },
                {
                  "internalType": "address",
                  "name": "owner",
                  "type": "address"
                },
                {
                  "internalType": "bytes",
                  "name": "text",
                  "type": "bytes"
                },
                {
                  "internalType": "bool",
                  "name": "exists",
                  "type": "bool"
                },
                {
                  "internalType": "uint256",
                  "name": "createdAt",
                  "type": "uint256"
                }
              ],
              "internalType": "struct IntroMoney.ConversationMessage[]",
              "name": "messages",
              "type": "tuple[]"
            },
            {
              "internalType": "uint32",
              "name": "id",
              "type": "uint32"
            },
            {
              "internalType": "uint256",
              "name": "messageId",
              "type": "uint256"
            },
            {
              "internalType": "bytes32",
              "name": "conversationHash",
              "type": "bytes32"
            },
            {
              "internalType": "uint256",
              "name": "createdAt",
              "type": "uint256"
            },
            {
              "internalType": "bool",
              "name": "expired",
              "type": "bool"
            }
          ],
          "internalType": "struct IntroMoney.Conversation",
          "name": "",
          "type": "tuple"
        }
      ],
      "stateMutability": "view",
      "type": "function",
      "constant": true
    },
    {
      "inputs": [
        {
          "internalType": "bytes32",
          "name": "_conversationHash",
          "type": "bytes32"
        }
      ],
      "name": "getConversationByHash",
      "outputs": [
        {
          "components": [
            {
              "internalType": "address",
              "name": "owner",
              "type": "address"
            },
            {
              "internalType": "bytes32",
              "name": "ownerUsername",
              "type": "bytes32"
            },
            {
              "internalType": "address",
              "name": "recipient",
              "type": "address"
            },
            {
              "internalType": "bytes32",
              "name": "recipientUsername",
              "type": "bytes32"
            },
            {
              "internalType": "uint256",
              "name": "readReward",
              "type": "uint256"
            },
            {
              "internalType": "uint256",
              "name": "replyReward",
              "type": "uint256"
            },
            {
              "internalType": "bool",
              "name": "exists",
              "type": "bool"
            },
            {
              "components": [
                {
                  "internalType": "uint256",
                  "name": "id",
                  "type": "uint256"
                },
                {
                  "internalType": "address",
                  "name": "owner",
                  "type": "address"
                },
                {
                  "internalType": "bytes",
                  "name": "text",
                  "type": "bytes"
                },
                {
                  "internalType": "bool",
                  "name": "exists",
                  "type": "bool"
                },
                {
                  "internalType": "uint256",
                  "name": "createdAt",
                  "type": "uint256"
                }
              ],
              "internalType": "struct IntroMoney.ConversationMessage[]",
              "name": "messages",
              "type": "tuple[]"
            },
            {
              "internalType": "uint32",
              "name": "id",
              "type": "uint32"
            },
            {
              "internalType": "uint256",
              "name": "messageId",
              "type": "uint256"
            },
            {
              "internalType": "bytes32",
              "name": "conversationHash",
              "type": "bytes32"
            },
            {
              "internalType": "uint256",
              "name": "createdAt",
              "type": "uint256"
            },
            {
              "internalType": "bool",
              "name": "expired",
              "type": "bool"
            }
          ],
          "internalType": "struct IntroMoney.Conversation",
          "name": "",
          "type": "tuple"
        }
      ],
      "stateMutability": "view",
      "type": "function",
      "constant": true
    },
    {
      "inputs": [
        {
          "internalType": "bytes32",
          "name": "_username",
          "type": "bytes32"
        }
      ],
      "name": "registerWithDeposit",
      "outputs": [
        {
          "internalType": "bool",
          "name": "",
          "type": "bool"
        }
      ],
      "stateMutability": "payable",
      "type": "function",
      "payable": true
    },
    {
      "inputs": [
        {
          "internalType": "bytes32",
          "name": "_username",
          "type": "bytes32"
        }
      ],
      "name": "register",
      "outputs": [
        {
          "internalType": "bool",
          "name": "",
          "type": "bool"
        }
      ],
      "stateMutability": "nonpayable",
      "type": "function"
    },
    {
      "inputs": [
        {
          "internalType": "address",
          "name": "sender",
          "type": "address"
        }
      ],
      "name": "isRegistered",
      "outputs": [
        {
          "internalType": "bool",
          "name": "",
          "type": "bool"
        }
      ],
      "stateMutability": "view",
      "type": "function",
      "constant": true
    },
    {
      "inputs": [],
      "name": "deposit",
      "outputs": [
        {
          "internalType": "bool",
          "name": "",
          "type": "bool"
        }
      ],
      "stateMutability": "payable",
      "type": "function",
      "payable": true
    },
    {
      "inputs": [],
      "name": "balance",
      "outputs": [
        {
          "internalType": "uint256",
          "name": "",
          "type": "uint256"
        }
      ],
      "stateMutability": "view",
      "type": "function",
      "constant": true
    },
    {
      "inputs": [],
      "name": "username",
      "outputs": [
        {
          "internalType": "bytes32",
          "name": "",
          "type": "bytes32"
        }
      ],
      "stateMutability": "view",
      "type": "function",
      "constant": true
    },
    {
      "inputs": [
        {
          "internalType": "address",
          "name": "recipientAddress",
          "type": "address"
        },
        {
          "internalType": "address",
          "name": "fromAddress",
          "type": "address"
        },
        {
          "internalType": "uint256",
          "name": "amount",
          "type": "uint256"
        }
      ],
      "name": "transfer",
      "outputs": [
        {
          "internalType": "bool",
          "name": "",
          "type": "bool"
        }
      ],
      "stateMutability": "nonpayable",
      "type": "function"
    },
    {
      "inputs": [
        {
          "internalType": "uint256",
          "name": "_amount",
          "type": "uint256"
        }
      ],
      "name": "withdraw",
      "outputs": [
        {
          "internalType": "bool",
          "name": "",
          "type": "bool"
        }
      ],
      "stateMutability": "nonpayable",
      "type": "function"
    }
  ],
  "bytecode": "0x60806040523480156200001157600080fd5b5060405162002bc538038062002bc5833981016040819052620000349162000140565b6004868155600080546001600160a01b038088166001600160a01b0319909216821783556007805463ffffffff8b1663ffffffff199091161790556001878155600287815560038781556040805160c0810182528e815260208082018981526427bbb732b960d91b83850190815260608401888152608085018b815260a086018d81529b8d526005909452948b20935184559051968301969096559451938101939093555191018054925194511515600160a81b0260ff60a81b199590941661010002610100600160a81b0319921515929092166001600160a81b0319909316929092171792909216179055815491906200012f83620001b4565b9190505550505050505050620001dc565b60008060008060008060c0878903121562000159578182fd5b86519550602087015163ffffffff8116811462000174578283fd5b60408801519095506001600160a01b038116811462000191578283fd5b80945050606087015192506080870151915060a087015190509295509295509295565b6000600019821415620001d557634e487b7160e01b81526011600452602481fd5b5060010190565b6129d980620001ec6000396000f3fe6080604052600436106100c35760003560e01c80632e1a7d4d146100c85780632f54bf6e146100fd5780633b05ee821461011d57806361fac54d1461013d5780636a6859cb14610160578063b69ef8a81461018d578063b90bd3d8146101a2578063be1f6102146101c2578063beabacc8146101e2578063c3c5a54714610206578063d0e30db014610226578063d6898b921461022e578063d9a9b9ba1461024e578063e1fa8e8414610261578063ea52655e14610281578063f86e5761146102a1575b600080fd5b3480156100d457600080fd5b506100e86100e33660046123b6565b6102c3565b60405190151581526020015b60405180910390f35b34801561010957600080fd5b506100e8610118366004612361565b6104db565b34801561012957600080fd5b506100e8610138366004612465565b6104ef565b34801561014957600080fd5b5061015261091f565b6040519081526020016100f4565b34801561016c57600080fd5b5061018061017b366004612419565b61094a565b6040516100f4919061285c565b34801561019957600080fd5b50610152610c26565b3480156101ae57600080fd5b506100e86101bd366004612433565b610c51565b3480156101ce57600080fd5b506100e86101dd3660046123ce565b610d0e565b3480156101ee57600080fd5b506100e86101fd36600461237b565b60009392505050565b34801561021257600080fd5b506100e8610221366004612361565b611153565b6100e8611174565b34801561023a57600080fd5b506100e8610249366004612433565b6111ea565b6100e861025c3660046123b6565b61168c565b34801561026d57600080fd5b506100e861027c3660046123b6565b611800565b34801561028d57600080fd5b5061018061029c3660046123b6565b6118fb565b3480156102ad57600080fd5b506102b6611bc1565b6040516100f49190612661565b60006102ce33611153565b6102d757600080fd5b336000908152600560205260409020600101548211156103335760405162461bcd60e51b81526020600482015260126024820152714e6f7420656e6f7567682062616c616e636560701b60448201526064015b60405180910390fd5b33600090815260056020526040902060030154600160a81b900460ff16156103915760405162461bcd60e51b815260206004820152601160248201527014995c5d595cdd081a5cc81b1bd8dad959607a1b604482015260640161032a565b33600090815260056020526040808220600301805460ff60a81b1916600160a81b17908190559051829161010090046001600160a01b031690859060006040518083038185875af1925050503d8060008114610409576040519150601f19603f3d011682016040523d82523d6000602084013e61040e565b606091505b5091509150816104535760405162461bcd60e51b815260206004820152601060248201526f2a3930b739b332b9103330b4b632b21760811b604482015260640161032a565b33600090815260056020526040812060010180548692906104759084906128c6565b90915550503360008181526005602052604090819020600301805460ff60a81b19169055517f884edad9ce6fa2440d8a54cc123490eb96d2768479d49ff9c7366125a9424364906104c99087815260200190565b60405180910390a25060019392505050565b6000546001600160a01b0390811691161490565b60006104fa33611153565b6105165760405162461bcd60e51b815260040161032a90612752565b63ffffffff83166000908152600a602052604090206006015460ff1615156001146105535760405162461bcd60e51b815260040161032a90612827565b63ffffffff83166000908152600a60205260409020546001600160a01b031633148061059f575063ffffffff83166000908152600a60205260409020600201546001600160a01b031633145b6105da5760405162461bcd60e51b815260206004820152600c60248201526b2737ba1030b63637bbb2b21760a11b604482015260640161032a565b63ffffffff83166000908152600a60205260409020600c015460ff16156106135760405162461bcd60e51b815260040161032a906127f6565b63ffffffff83166000908152600a60205260409020600201546001600160a01b03163314801561065f575063ffffffff83166000908152600c60205260409020546001600160a01b0316155b156108285763ffffffff83166000908152600a60205260408120600501546001546106949161068d91612183565b606461218f565b63ffffffff85166000908152600a60205260409020600501549091506106ba908261219b565b63ffffffff85166000908152600a60209081526040808320546001600160a01b03168352600590915290206001015410156107075760405162461bcd60e51b815260040161032a90612782565b63ffffffff84166000908152600a6020908152604080832060058082015491546001600160a01b03168552909252822060010180549192909161074b9084906128c6565b909155505063ffffffff84166000908152600a602090815260408083206005908101543385529252822060010180549192909161078990849061286f565b909155505063ffffffff84166000908152600a60209081526040808320546001600160a01b031683526005909152812060010180548392906107cc9084906128c6565b9091555050600080546001600160a01b0316815260056020526040812060010180548392906107fc90849061286f565b90915550505063ffffffff83166000908152600c6020526040902080546001600160a01b031916331790555b6040805160a08101825263ffffffff85166000908152600a60208181528483206009810154855233828601908152958501888152600160608701819052426080880152938352600790910180548085018255908552938290208551600590950201938455945191830180546001600160a01b0319166001600160a01b039093169290921790915592518051929384936108c792600285019201906121a7565b50606082015160038201805460ff191691151591909117905560809091015160049091015563ffffffff84166000908152600a6020526040812060090180549161091083612918565b90915550600195945050505050565b600061092a33611153565b61093357600080fd5b503360009081526005602052604090206002015490565b61095261222b565b61095b33611153565b6109775760405162461bcd60e51b815260040161032a90612752565b63ffffffff82166000908152600a602052604090206006015460ff166109af5760405162461bcd60e51b815260040161032a906126f9565b63ffffffff82166000908152600a60205260409020600201546001600160a01b031615806109fd575063ffffffff82166000908152600a60205260409020600201546001600160a01b031633145b80610a25575063ffffffff82166000908152600a60205260409020546001600160a01b031633145b610a415760405162461bcd60e51b815260040161032a9061272d565b63ffffffff82166000908152600a6020908152604080832081516101a08101835281546001600160a01b039081168252600183015482860152600283015416818401526003820154606082015260048201546080820152600582015460a0820152600682015460ff16151560c08201526007820180548451818702810187019095528085529195929460e0870194939192919084015b82821015610bda5760008481526020908190206040805160a081018252600586029092018054835260018101546001600160a01b03169383019390935260028301805492939291840191610b2a906128dd565b80601f0160208091040260200160405190810160405280929190818152602001828054610b56906128dd565b8015610ba35780601f10610b7857610100808354040283529160200191610ba3565b820191906000526020600020905b815481529060010190602001808311610b8657829003601f168201915b5050509183525050600382015460ff1615156020808301919091526004909201546040909101529082526001929092019101610ad7565b50505090825250600882015463ffffffff16602082015260098201546040820152600a8201546060820152600b8201546080820152600c9091015460ff16151560a09091015292915050565b6000610c3133611153565b610c3a57600080fd5b503360009081526005602052604090206001015490565b6000610c5c336104db565b610c785760405162461bcd60e51b815260040161032a906126c2565b63ffffffff83166000908152600a602052604090206006015460ff161515600114610cb55760405162461bcd60e51b815260040161032a90612827565b63ffffffff83166000908152600a60205260409020546001600160a01b0383811691161480610d07575063ffffffff83166000908152600a60205260409020600201546001600160a01b038381169116145b9392505050565b6000610d1933611153565b610d355760405162461bcd60e51b815260040161032a90612752565b33600a6000600760009054906101000a900463ffffffff1663ffffffff1663ffffffff16815260200190815260200160002060000160006101000a8154816001600160a01b0302191690836001600160a01b0316021790555082600a6000600760009054906101000a900463ffffffff1663ffffffff1663ffffffff1681526020019081526020016000206004018190555081600a6000600760009054906101000a900463ffffffff1663ffffffff1663ffffffff168152602001908152602001600020600501819055506001600a6000600760009054906101000a900463ffffffff1663ffffffff1663ffffffff16815260200190815260200160002060060160006101000a81548160ff02191690831515021790555060056000336001600160a01b03166001600160a01b0316815260200190815260200160002060020154600a6000600760009054906101000a900463ffffffff1663ffffffff1663ffffffff1681526020019081526020016000206001018190555042600a6000600760009054906101000a900463ffffffff1663ffffffff1663ffffffff168152602001908152602001600020600b018190555060006040518060a00160405280600a6000600760009054906101000a900463ffffffff1663ffffffff1663ffffffff168152602001908152602001600020600901548152602001336001600160a01b03168152602001868152602001600115158152602001428152509050600a6000600760009054906101000a900463ffffffff1663ffffffff1663ffffffff1681526020019081526020016000206007018190806001815401808255809150506001900390600052602060002090600502016000909190919091506000820151816000015560208201518160010160006101000a8154816001600160a01b0302191690836001600160a01b0316021790555060408201518160020190805190602001906110039291906121a7565b50606082015160038201805491151560ff1990921691909117905560809091015160049182015533600090815260086020818152604080842060078054825460018101845592875284872095830490950180549282169097026101000a63ffffffff9586168102908602199092169190911790955593549091168252600a905290812060090180549161109583612918565b90915550506007805463ffffffff9081166000818152600a60208181526040808420600801805463ffffffff1990811690961790558654815190871681840181905282518083038501815291830183528151918401919091209085528383528185209093018390558654838552600d909252832080549094169085161790925583549193919092169161112783612933565b91906101000a81548163ffffffff021916908363ffffffff160217905550506001925050509392505050565b6001600160a01b031660009081526005602052604090206003015460ff1690565b600061117f33611153565b61118857600080fd5b33600090815260056020526040812060010180543492906111aa90849061286f565b909155505060405134815233907fe1fffcc4923d04b559f4d29a8bfc6cda04eb5b0d3c460751c2402c5c5cc9109c9060200160405180910390a250600190565b60006111f5336104db565b6112115760405162461bcd60e51b815260040161032a906126c2565b63ffffffff83166000908152600a602052604090206006015460ff16151560011461124e5760405162461bcd60e51b815260040161032a90612827565b63ffffffff83166000908152600a60205260409020600c015460ff16156112875760405162461bcd60e51b815260040161032a906127f6565b63ffffffff83166000908152600a60205260409020600201546001600160a01b031615806112d5575063ffffffff83166000908152600a60205260409020546001600160a01b038381169116145b80611303575063ffffffff83166000908152600a60205260409020600201546001600160a01b038381169116145b61131f5760405162461bcd60e51b815260040161032a9061272d565b63ffffffff83166000908152600a60205260409020600201546001600160a01b031615801561136f575063ffffffff83166000908152600a60205260409020546001600160a01b03838116911614155b156116835763ffffffff83166000908152600a60205260409020600c015460ff161580156113ce57506003546113a890620151806128a7565b63ffffffff84166000908152600a60205260409020600b01546113cb919061286f565b42115b1561144b5763ffffffff83166000908152600a602052604090819020600c01805460ff191660011790555162461bcd60e51b815261032a9060040160208082526022908201527f436f6e766572736174696f6e206973206f6c646572207468616e20616c6c6f77604082015261195960f21b606082015260800190565b63ffffffff83166000908152600a60205260408120600401546001546114749161068d91612183565b63ffffffff85166000908152600a602052604090206004015490915061149a908261219b565b63ffffffff85166000908152600a60209081526040808320546001600160a01b03168352600590915290206001015410156114e75760405162461bcd60e51b815260040161032a90612782565b63ffffffff84166000908152600a60209081526040808320600280820180546001600160a01b0319166001600160a01b038a8116918217909255865260059094528285200154600382015560048101549054909216835282206001018054919290916115549084906128c6565b909155505063ffffffff84166000908152600a60209081526040808320600401546001600160a01b03871684526005909252822060010180549192909161159c90849061286f565b909155505063ffffffff84166000908152600a60209081526040808320546001600160a01b031683526005909152812060010180548392906115df9084906128c6565b9091555050600080546001600160a01b03168152600560205260408120600101805483929061160f90849061286f565b9091555050506001600160a01b038216600081815260096020908152604080832080546001810182559084528284206008820401805463ffffffff808b1660046007909516949094026101000a8481029102199091161790558352600b909152902080546001600160a01b03191690911790555b50600192915050565b600061169733611153565b156116b45760405162461bcd60e51b815260040161032a906127c4565b60025434101561171d5760405162461bcd60e51b815260206004820152602e60248201527f5265676973746572206465706f7369742076616c756520736d616c6c2074686560448201526d37103a34329036b4b734b6bab69760911b606482015260840161032a565b6040805160c08101825260045481523460208083019182528284018681526001606085018181523360808701818152600060a08901818152838252600590975289812098518955965193880193909355925160028701555160039095018054915193511515600160a81b0260ff60a81b196001600160a01b039590951661010002610100600160a81b0319971515979097166001600160a81b0319909316929092179590951792909216919091179092559151909160008051602061298483398151915291a2600480549060006117f383612918565b9091555060019392505050565b600061180b33611153565b156118285760405162461bcd60e51b815260040161032a906127c4565b6040805160c081018252600454815260006020808301828152838501878152600160608601818152336080880181815260a0890188815282895260059097528988209851895594519288019290925591516002870155905160039095018054925193511515600160a81b0260ff60a81b196001600160a01b039590951661010002610100600160a81b0319971515979097166001600160a81b0319909416939093179590951792909216179092559151909160008051602061298483398151915291a2600480549060006117f383612918565b61190361222b565b6000828152600d602090815260408083205463ffffffff16808452600a9092529091206006015460ff166119495760405162461bcd60e51b815260040161032a906126f9565b63ffffffff81166000908152600a60205260409020600201546001600160a01b03161580611997575063ffffffff81166000908152600a60205260409020600201546001600160a01b031633145b806119bf575063ffffffff81166000908152600a60205260409020546001600160a01b031633145b6119db5760405162461bcd60e51b815260040161032a9061272d565b63ffffffff81166000908152600a6020908152604080832081516101a08101835281546001600160a01b039081168252600183015482860152600283015416818401526003820154606082015260048201546080820152600582015460a0820152600682015460ff16151560c08201526007820180548451818702810187019095528085529195929460e0870194939192919084015b82821015611b745760008481526020908190206040805160a081018252600586029092018054835260018101546001600160a01b03169383019390935260028301805492939291840191611ac4906128dd565b80601f0160208091040260200160405190810160405280929190818152602001828054611af0906128dd565b8015611b3d5780601f10611b1257610100808354040283529160200191611b3d565b820191906000526020600020905b815481529060010190602001808311611b2057829003601f168201915b5050509183525050600382015460ff1615156020808301919091526004909201546040909101529082526001929092019101611a71565b50505090825250600882015463ffffffff16602082015260098201546040820152600a8201546060820152600b8201546080820152600c9091015460ff16151560a0909101529392505050565b6060611bcc33611153565b611bd557600080fd5b336000908152600960209081526040808320546008909252822054611bfa919061286f565b6001600160401b03811115611c1f57634e487b7160e01b600052604160045260246000fd5b604051908082528060200260200182016040528015611c5857816020015b611c4561222b565b815260200190600190039081611c3d5790505b5090506000805b33600090815260096020526040902054811015611eeb573360009081526009602052604081208054600a92919084908110611caa57634e487b7160e01b600052603260045260246000fd5b6000918252602080832060088304015463ffffffff6004600794851681026101000a909204168552848201959095526040938401832084516101a08101865281546001600160a01b0390811682526001830154828501526002830154168187015260038201546060820152958101546080870152600581015460a0870152600681015460ff16151560c08701529182018054855181840281018401909652808652929460e08701949093919284015b82821015611e5c5760008481526020908190206040805160a081018252600586029092018054835260018101546001600160a01b03169383019390935260028301805492939291840191611dac906128dd565b80601f0160208091040260200160405190810160405280929190818152602001828054611dd8906128dd565b8015611e255780601f10611dfa57610100808354040283529160200191611e25565b820191906000526020600020905b815481529060010190602001808311611e0857829003601f168201915b5050509183525050600382015460ff1615156020808301919091526004909201546040909101529082526001929092019101611d59565b50505090825250600882015463ffffffff16602082015260098201546040820152600a8201546060820152600b8201546080820152600c9091015460ff16151560a0909101528383611ead81612918565b945081518110611ecd57634e487b7160e01b600052603260045260246000fd5b60200260200101819052508080611ee390612918565b915050611c5f565b5060005b3360009081526008602052604090205481101561217b573360009081526008602052604081208054600a92919084908110611f3a57634e487b7160e01b600052603260045260246000fd5b6000918252602080832060088304015463ffffffff6004600794851681026101000a909204168552848201959095526040938401832084516101a08101865281546001600160a01b0390811682526001830154828501526002830154168187015260038201546060820152958101546080870152600581015460a0870152600681015460ff16151560c08701529182018054855181840281018401909652808652929460e08701949093919284015b828210156120ec5760008481526020908190206040805160a081018252600586029092018054835260018101546001600160a01b0316938301939093526002830180549293929184019161203c906128dd565b80601f0160208091040260200160405190810160405280929190818152602001828054612068906128dd565b80156120b55780601f1061208a576101008083540402835291602001916120b5565b820191906000526020600020905b81548152906001019060200180831161209857829003601f168201915b5050509183525050600382015460ff1615156020808301919091526004909201546040909101529082526001929092019101611fe9565b50505090825250600882015463ffffffff16602082015260098201546040820152600a8201546060820152600b8201546080820152600c9091015460ff16151560a090910152838361213d81612918565b94508151811061215d57634e487b7160e01b600052603260045260246000fd5b6020026020010181905250808061217390612918565b915050611eef565b509092915050565b6000610d0782846128a7565b6000610d078284612887565b6000610d07828461286f565b8280546121b3906128dd565b90600052602060002090601f0160209004810192826121d5576000855561221b565b82601f106121ee57805160ff191683800117855561221b565b8280016001018555821561221b579182015b8281111561221b578251825591602001919060010190612200565b50612227929150612296565b5090565b604080516101a08101825260008082526020820181905291810182905260608082018390526080820183905260a0820183905260c0820183905260e0820152610100810182905261012081018290526101408101829052610160810182905261018081019190915290565b5b808211156122275760008155600101612297565b80356001600160a01b03811681146122c257600080fd5b919050565b600082601f8301126122d7578081fd5b81356001600160401b03808211156122f1576122f161296d565b604051601f8301601f19908116603f011681019082821181831017156123195761231961296d565b81604052838152866020858801011115612331578485fd5b8360208701602083013792830160200193909352509392505050565b803563ffffffff811681146122c257600080fd5b600060208284031215612372578081fd5b610d07826122ab565b60008060006060848603121561238f578182fd5b612398846122ab565b92506123a6602085016122ab565b9150604084013590509250925092565b6000602082840312156123c7578081fd5b5035919050565b6000806000606084860312156123e2578283fd5b83356001600160401b038111156123f7578384fd5b612403868287016122c7565b9660208601359650604090950135949350505050565b60006020828403121561242a578081fd5b610d078261234d565b60008060408385031215612445578182fd5b61244e8361234d565b915061245c602084016122ab565b90509250929050565b60008060408385031215612477578182fd5b6124808361234d565b915060208301356001600160401b0381111561249a578182fd5b6124a6858286016122c7565b9150509250929050565b6001600160a01b03169052565b600082825180855260208086019550808260051b840101818601855b8481101561258b57601f1986840381018a52825180518552858101516001600160a01b03168686015260408082015160a091870182905280519187018290528a91905b8183101561253a5780830189015188840160c001529188019161251c565b508082111561254c578a60c082890101525b60609150818301516125618389018215159052565b50608092830151928701929092525099850199601f011690920160c00191908301906001016124d9565b5090979650505050505050565b60006101a06125a88484516124b0565b6020830151602085015260408301516125c460408601826124b0565b50606083015160608501526080830151608085015260a083015160a085015260c08301516125f660c086018215159052565b5060e08301518160e086015261260e828601826124bd565b915050610100808401516126298287018263ffffffff169052565b505061012083810151908501526101408084015190850152610160808401519085015261018092830151151592909301919091525090565b6000602080830181845280855180835260408601915060408160051b8701019250838701855b828110156126b557603f198886030184526126a3858351612598565b94509285019290850190600101612687565b5092979650505050505050565b6020808252601e908201527f596f7520617265206e6f742074686520636f6e7472616374206f776e65720000604082015260600190565b6020808252601a908201527910dbdb9d995c9cd85d1a5bdb88191bd95cdb89dd08195e1a5cdd60321b604082015260600190565b6020808252600b908201526a139bdd08185b1b1bddd95960aa1b604082015260600190565b602080825260169082015275165bdd48185c99481b9bdd081c9959da5cdd195c995960521b604082015260600190565b60208082526022908201527f4d657373616765206f776e657220646f6573206e6f74206166666f7264207468604082015261697360f01b606082015260800190565b6020808252601890820152772ab9b2b91030b63932b0b23c903932b3b4b9ba32b932b21760411b604082015260600190565b60208082526017908201527610dbdb9d995c9cd85d1a5bdb881a5cc8195e1c1a5c9959604a1b604082015260600190565b6020808252601b908201527a10dbdb9d995c9cd85d1a5bdb88191bd95cc81b9bdd08195e1a5cdd602a1b604082015260600190565b602081526000610d076020830184612598565b6000821982111561288257612882612957565b500190565b6000826128a257634e487b7160e01b81526012600452602481fd5b500490565b60008160001904831182151516156128c1576128c1612957565b500290565b6000828210156128d8576128d8612957565b500390565b600181811c908216806128f157607f821691505b6020821081141561291257634e487b7160e01b600052602260045260246000fd5b50919050565b600060001982141561292c5761292c612957565b5060010190565b600063ffffffff8083168181141561294d5761294d612957565b6001019392505050565b634e487b7160e01b600052601160045260246000fd5b634e487b7160e01b600052604160045260246000fdfeeeda149c76076b34d4b9d8896c2f7efc0d33d1c7b53ea3c5db490d64613f603aa264697066735822122020df50134c9267c130e3e9a5ed9a0d5171bcaecb21802c81c26ace58deaded9e64736f6c63430008040033",
  "immutableReferences": {},
  "source": "// SPDX-License-Identifier: GPL-3.0\npragma solidity >=0.8.0 <0.9.0;\npragma experimental ABIEncoderV2;\n\nimport \"@openzeppelin/contracts/utils/math/SafeMath.sol\";\n\ncontract IntroMoney {\n  address private owner;\n  uint256 private feePercent;\n  using SafeMath for uint256;\n  uint256 private minRegisterDeposit;\n  uint256 private unreadConversationExpiryDays;\n\n  struct User {\n    uint256 id;\n    uint256 balance;\n    bytes32 username;\n    bool exists;\n    address payable userAddress;\n    bool transferLocked;\n  }\n  uint256 private userId;\n  mapping(address => User) private users;\n  address[] private usersList;\n\n  struct ConversationMessage {\n    uint256 id;\n    address owner;\n    bytes text;\n    bool exists;\n    uint256 createdAt;\n  }\n  struct Conversation {\n    address owner;\n    bytes32 ownerUsername;\n    address recipient;\n    bytes32 recipientUsername;\n    uint256 readReward;\n    uint256 replyReward;\n    bool exists;\n    ConversationMessage[] messages;\n    uint32 id;\n    uint256 messageId;\n    bytes32 conversationHash;\n    uint256 createdAt;\n    bool expired;\n  }\n  uint32 private conversationId;\n\n  mapping(address => uint32[]) private ownerConversations;\n  mapping(address => uint32[]) private recipientConversations;\n  mapping(uint32 => Conversation) private conversations;\n  mapping(uint32 => address) private paidReads;\n  mapping(uint32 => address) private paidReplies;\n  mapping(bytes32 => uint32) private conversationsHashToId;\n\n  function createConversation(\n    bytes memory _encryptedMessage,\n    uint256 _readReward,\n    uint256 _replyReward\n  ) public returns (bool) {\n    require(isRegistered(msg.sender), \"You are not registered\");\n\n    conversations[conversationId].owner = msg.sender;\n    conversations[conversationId].readReward = _readReward;\n    conversations[conversationId].replyReward = _replyReward;\n    conversations[conversationId].exists = true;\n    conversations[conversationId].ownerUsername = users[msg.sender].username;\n    conversations[conversationId].createdAt = block.timestamp;\n    ConversationMessage memory message =\n      ConversationMessage({\n        id: conversations[conversationId].messageId,\n        owner: msg.sender,\n        text: _encryptedMessage,\n        exists: true,\n        createdAt: block.timestamp\n      });\n    conversations[conversationId].messages.push(message);\n    ownerConversations[msg.sender].push(conversationId);\n    conversations[conversationId].messageId++;\n    conversations[conversationId].id = conversationId;\n    bytes32 conversationHash = keccak256(abi.encode(conversationId));\n    conversations[conversationId].conversationHash = conversationHash;\n    conversationsHashToId[conversationHash] = conversationId;\n    conversationId++;\n\n    // emit CreateConversation(msg.sender, messageId);\n    // emit CreateMessage(msg.sender, messageId);\n\n    return true;\n  }\n\n  function addMessageToConversation(\n    uint32 _conversationId,\n    bytes memory _encryptedMessage\n  ) public returns (bool) {\n    // require(isOwner(msg.sender), \"You are not the contract owner\");\n    require(isRegistered(msg.sender), \"You are not registered\");\n    require(\n      conversations[_conversationId].exists == true,\n      \"Conversation does not exist\"\n    );\n    require(\n      conversations[_conversationId].owner == msg.sender ||\n        conversations[_conversationId].recipient == msg.sender,\n      \"Not allowed.\"\n    );\n    require(\n      conversations[_conversationId].expired == false,\n      \"Conversation is expired\"\n    );\n\n    if (\n      conversations[_conversationId].recipient == msg.sender &&\n      paidReplies[_conversationId] == address(0)\n    ) {\n      uint256 fee =\n        SafeMath.div(\n          SafeMath.mul(conversations[_conversationId].replyReward, feePercent),\n          100\n        );\n      require(\n        users[conversations[_conversationId].owner].balance >=\n          SafeMath.add(conversations[_conversationId].replyReward, fee),\n        \"Message owner does not afford this\"\n      );\n\n      users[conversations[_conversationId].owner].balance -= conversations[\n        _conversationId\n      ]\n        .replyReward;\n      users[msg.sender].balance += conversations[_conversationId].replyReward;\n\n      // fee\n      users[conversations[_conversationId].owner].balance -= fee;\n      users[owner].balance += fee;\n\n      paidReplies[_conversationId] = msg.sender;\n    }\n\n    ConversationMessage memory message =\n      ConversationMessage({\n        id: conversations[_conversationId].messageId,\n        owner: msg.sender,\n        text: _encryptedMessage,\n        exists: true,\n        createdAt: block.timestamp\n      });\n    conversations[_conversationId].messages.push(message);\n    conversations[_conversationId].messageId++;\n\n    return true;\n  }\n\n  function checkConversationReadByParticipant(\n    uint32 _conversationId,\n    address _participant\n  ) public view returns (bool) {\n    require(isOwner(msg.sender), \"You are not the contract owner\");\n    require(\n      conversations[_conversationId].exists == true,\n      \"Conversation does not exist\"\n    );\n\n    return\n      conversations[_conversationId].owner == _participant ||\n      conversations[_conversationId].recipient == _participant;\n  }\n\n  function readConversationByParticipant(\n    uint32 _conversationId,\n    address _participant\n  ) public returns (bool) {\n    require(isOwner(msg.sender), \"You are not the contract owner\");\n    require(\n      conversations[_conversationId].exists == true,\n      \"Conversation does not exist\"\n    );\n    require(\n      conversations[_conversationId].expired == false,\n      \"Conversation is expired\"\n    );\n    require(\n      conversations[_conversationId].recipient == address(0) ||\n        conversations[_conversationId].owner == _participant ||\n        conversations[_conversationId].recipient == _participant,\n      \"Not allowed\"\n    );\n\n    if (\n      conversations[_conversationId].recipient == address(0) &&\n      conversations[_conversationId].owner != _participant\n    ) {\n      if (\n        conversations[_conversationId].expired == false &&\n        block.timestamp >\n        conversations[_conversationId].createdAt +\n          unreadConversationExpiryDays *\n          1 days\n      ) {\n        conversations[_conversationId].expired = true;\n        revert(\"Conversation is older than allowed\");\n      }\n\n      uint256 fee =\n        SafeMath.div(\n          SafeMath.mul(conversations[_conversationId].readReward, feePercent),\n          100\n        );\n      require(\n        users[conversations[_conversationId].owner].balance >=\n          SafeMath.add(conversations[_conversationId].readReward, fee),\n        \"Message owner does not afford this\"\n      );\n      conversations[_conversationId].recipient = _participant;\n      conversations[_conversationId].recipientUsername = users[_participant]\n        .username;\n      users[conversations[_conversationId].owner].balance -= conversations[\n        _conversationId\n      ]\n        .readReward;\n      users[_participant].balance += conversations[_conversationId].readReward;\n\n      // fee\n      users[conversations[_conversationId].owner].balance -= fee;\n      users[owner].balance += fee;\n\n      recipientConversations[_participant].push(_conversationId);\n      paidReads[_conversationId] = _participant;\n    }\n\n    return true;\n  }\n\n  function isOwner(address _owner) public view returns (bool) {\n    return owner == _owner;\n  }\n\n  function getConversations() public view returns (Conversation[] memory) {\n    require(isRegistered(msg.sender));\n\n    Conversation[] memory userConversations =\n      new Conversation[](\n        ownerConversations[msg.sender].length +\n          recipientConversations[msg.sender].length\n      );\n    uint256 j = 0;\n\n    for (uint256 i = 0; i < recipientConversations[msg.sender].length; i++) {\n      userConversations[j++] = conversations[\n        recipientConversations[msg.sender][i]\n      ];\n    }\n\n    for (uint256 i = 0; i < ownerConversations[msg.sender].length; i++) {\n      userConversations[j++] = conversations[ownerConversations[msg.sender][i]];\n    }\n\n    return userConversations;\n  }\n\n  function getConversation(uint32 _conversationId)\n    public\n    view\n    returns (Conversation memory)\n  {\n    require(isRegistered(msg.sender), \"You are not registered\");\n    require(\n      conversations[_conversationId].exists,\n      \"Conversation doesn't exist\"\n    );\n    require(\n      conversations[_conversationId].recipient == address(0) ||\n        conversations[_conversationId].recipient == msg.sender ||\n        conversations[_conversationId].owner == msg.sender,\n      \"Not allowed\"\n    );\n\n    return conversations[_conversationId];\n  }\n\n  function getConversationByHash(bytes32 _conversationHash)\n    public\n    view\n    returns (Conversation memory)\n  {\n    uint32 conversationIdFromHash = conversationsHashToId[_conversationHash];\n    require(\n      conversations[conversationIdFromHash].exists,\n      \"Conversation doesn't exist\"\n    );\n    require(\n      conversations[conversationIdFromHash].recipient == address(0) ||\n        conversations[conversationIdFromHash].recipient == msg.sender ||\n        conversations[conversationIdFromHash].owner == msg.sender,\n      \"Not allowed\"\n    );\n\n    return conversations[conversationIdFromHash];\n  }\n\n  mapping(address => uint256[]) userCreatedMessages;\n  mapping(address => uint256[]) userReadMessages;\n\n  event Deposit(address indexed _from, uint256 _value);\n  event Withdraw(address indexed _from, uint256 _value);\n  event CreateMessage(address indexed _from, uint256 _messageId);\n  event Register(address indexed _from);\n\n  constructor(\n    uint256 _userId,\n    uint32 _conversationId,\n    address _owner,\n    uint256 _feePercent,\n    uint256 _minRegisterDeposit,\n    uint256 _unreadConversationExpiryDays\n  ) {\n    userId = _userId; // should be 1\n    owner = _owner;\n    conversationId = _conversationId;\n    feePercent = _feePercent;\n    minRegisterDeposit = _minRegisterDeposit;\n    unreadConversationExpiryDays = _unreadConversationExpiryDays;\n\n    users[owner] = User({\n      balance: 0 wei,\n      username: \"Owner\",\n      id: userId,\n      exists: true,\n      userAddress: payable(_owner),\n      transferLocked: false\n    });\n    userId++;\n  }\n\n  function registerWithDeposit(bytes32 _username)\n    public\n    payable\n    returns (bool)\n  {\n    require(!isRegistered(msg.sender), \"User already registered.\");\n    require(\n      msg.value >= minRegisterDeposit,\n      \"Register deposit value small then the minimum.\"\n    );\n\n    users[msg.sender] = User({\n      balance: msg.value,\n      username: _username,\n      id: userId,\n      exists: true,\n      userAddress: payable(msg.sender),\n      transferLocked: false\n    });\n    emit Register(msg.sender);\n    userId++;\n\n    return true;\n  }\n\n  function register(bytes32 _username) public returns (bool) {\n    require(!isRegistered(msg.sender), \"User already registered.\");\n\n    users[msg.sender] = User({\n      balance: 0 wei,\n      username: _username,\n      id: userId,\n      exists: true,\n      userAddress: payable(msg.sender),\n      transferLocked: false\n    });\n    emit Register(msg.sender);\n    userId++;\n\n    return true;\n  }\n\n  function isRegistered(address sender) public view returns (bool) {\n    return users[sender].exists;\n  }\n\n  function deposit() public payable returns (bool) {\n    require(isRegistered(msg.sender));\n\n    users[msg.sender].balance += msg.value;\n    emit Deposit(msg.sender, msg.value);\n\n    return true;\n  }\n\n  function balance() public view returns (uint256) {\n    require(isRegistered(msg.sender));\n\n    return users[msg.sender].balance;\n  }\n\n  function username() public view returns (bytes32) {\n    require(isRegistered(msg.sender));\n\n    return users[msg.sender].username;\n  }\n\n  function transfer(\n    address recipientAddress,\n    address fromAddress,\n    uint256 amount\n  ) public returns (bool) {}\n\n  function withdraw(uint256 _amount) public returns (bool) {\n    require(isRegistered(msg.sender));\n    require(users[msg.sender].balance >= _amount, \"Not enough balance\");\n    require(!users[msg.sender].transferLocked, \"Request is locked\");\n\n    users[msg.sender].transferLocked = true;\n    (bool success, bytes memory transactionBytes) =\n      users[msg.sender].userAddress.call{value: _amount}(\"\");\n\n    require(success, \"Transfer failed.\");\n\n    users[msg.sender].balance -= _amount;\n    users[msg.sender].transferLocked = false;\n    emit Withdraw(msg.sender, _amount);\n\n    return true;\n  }\n}\n",
  "sourcePath": "/Users/ibuzila001/Projects/bnb-smart-chain-app/contracts/IntroMoney.sol",
  "compiler": {
    "name": "solc",
    "version": "0.8.4+commit.c7e474f2.Emscripten.clang"
  },
  "schemaVersion": "3.3.4",
  "updatedAt": "2022-03-20T09:02:15.801Z",
  "networkType": "ethereum",
  "devdoc": {
    "kind": "dev",
    "methods": {},
    "version": 1
  },
  "userdoc": {
    "kind": "user",
    "methods": {},
    "version": 1
  }
}